:08019E000210000002130050E2
:040176007F147E0074
:10017A00EF4E60120000007D0B7CBEDCFEDDFCEF62
:06018A001F70ED1E80EA6B
:01019000224C
:10011600759850E4F587758921758CFE758A0C757E
:100126008BFD758DFDD2AFD2ACD28ED2A9D28DC247
:100136008CE51224CE601214601A24027026751300
:100146000075145075800680147513007514327589
:10015600805B800975130075141475804F7FC87E07
:100166000012017A30B105E512B431C5D28C80C1D6
:0D019100C2B7120176C2901201760201166B
:0300230002000ECA
:10000E0030980DC2988599128512993099FDC29932
:01001E0032AF
:03000B000200B23E
:1000B200C0E0C0D075D008758CFC758A18D3E511E4
:1000C2009514E51095135004C2908002D290E51168
:1000D200646445107004F510F5110511E511700204
:1000E200051020B10C75130075145012017675803D
:1000F2000620B00C75130075143212017675805B00
:1001020020B20C75130075141412017675804FD04D
:04011200D0D0E03237
:03000000020026D5
:0C002600787FE4F6D8FD75811402006DAF
:10003200020191E493A3F8E493A34003F68001F252
:1000420008DFF48029E493A3F85407240CC8C333CF
:10005200C4540F4420C8834004F456800146F6DF9E
:10006200E4800B010204081020408090019EE47E8F
:10007200019360BCA3FF543F30E509541FFEE49393
:10008200A360010ECF54C025E060A840B8E493A35A
:10009200FAE493A3F8E493A3C8C582C8CAC583CA85
:1000A200F0A3C8C582C8CAC583CADFE9DEE780BE3D
:0101A6000058
:00000001FF
